:10096200C100C101020E0009020A0009020C0000C6
:040972000208000077
:10091400D2AFD2A8D2A9D2AA438901758CD8758A3C
:0C092400F075B802D288D28A850FA0229C
:10098A00120914C290D291D292C293D294850FA026
:02099A0080F1EA
:10088C00C292E4F508F509D28CC3E5099405E50894
:10089C00648094805021E50D6464450C700F05094B
:1008AC00E50970020508B292E4F50CF50DC290D280
:1008BC0091D293C29480D2D292E50F150F7002158B
:0408CC000EC28C22AA
:1008D000C292E4F508F509D28CC3E5099405E50850
:1008E000648094805021E50D6464450C700F050907
:1008F000E50970020508B292E4F50CF50DD290C23C
:1009000091C293D29480D2D292050FE50F70020566
:040910000EC28C2265
:03000300020930BF
:10093000C0E0C0D0D3E50F9400E50E648094804001
:090940000312088CD0D0D0E03283
:03000B0002097770
:10097700C0E0758CD8758AF0050DE50D7002050C81
:03098700D0E0328B
:0300130002094996
:10094900C0E0C0D0C3E50F9409E50E6480948050DF
:09095900031208D0D0D0D0E03226
:03000000020800F3
:0C080000787FE4F6D8FD758120020847DF
:10080C0002098AE493A3F8E493A34003F68001F26F
:10081C0008DFF48029E493A3F85407240CC8C333ED
:10082C00C4540F4420C8834004F456800146F6DFBC
:10083C00E4800B0102040810204080900962E47EE1
:10084C00019360BCA3FF543F30E509541FFEE493B1
:10085C00A360010ECF54C025E060A840B8E493A378
:10086C00FAE493A3F8E493A3C8C582C8CAC583CAA3
:10087C00F0A3C8C582C8CAC583CADFE9DEE780BE5B
:010976000080
:00000001FF
